{
  "contractName": "NFTFragmenter",
  "abi": [
    {
      "inputs": [],
      "stateMutability": "nonpayable",
      "type": "constructor"
    },
    {
      "anonymous": false,
      "inputs": [
        {
          "indexed": true,
          "internalType": "address",
          "name": "account",
          "type": "address"
        },
        {
          "indexed": true,
          "internalType": "address",
          "name": "operator",
          "type": "address"
        },
        {
          "indexed": false,
          "internalType": "bool",
          "name": "approved",
          "type": "bool"
        }
      ],
      "name": "ApprovalForAll",
      "type": "event"
    },
    {
      "anonymous": false,
      "inputs": [
        {
          "indexed": true,
          "internalType": "address",
          "name": "owner",
          "type": "address"
        },
        {
          "indexed": true,
          "internalType": "uint256",
          "name": "tokenId",
          "type": "uint256"
        }
      ],
      "name": "NFTDefragmented",
      "type": "event"
    },
    {
      "anonymous": false,
      "inputs": [
        {
          "indexed": true,
          "internalType": "address",
          "name": "owner",
          "type": "address"
        },
        {
          "indexed": true,
          "internalType": "uint256",
          "name": "tokenId",
          "type": "uint256"
        },
        {
          "indexed": false,
          "internalType": "uint256",
          "name": "fragmentsCount",
          "type": "uint256"
        }
      ],
      "name": "NFTFragmented",
      "type": "event"
    },
    {
      "anonymous": false,
      "inputs": [
        {
          "indexed": true,
          "internalType": "address",
          "name": "previousOwner",
          "type": "address"
        },
        {
          "indexed": true,
          "internalType": "address",
          "name": "newOwner",
          "type": "address"
        }
      ],
      "name": "OwnershipTransferred",
      "type": "event"
    },
    {
      "anonymous": false,
      "inputs": [
        {
          "indexed": true,
          "internalType": "address",
          "name": "operator",
          "type": "address"
        },
        {
          "indexed": true,
          "internalType": "address",
          "name": "from",
          "type": "address"
        },
        {
          "indexed": true,
          "internalType": "address",
          "name": "to",
          "type": "address"
        },
        {
          "indexed": false,
          "internalType": "uint256[]",
          "name": "ids",
          "type": "uint256[]"
        },
        {
          "indexed": false,
          "internalType": "uint256[]",
          "name": "values",
          "type": "uint256[]"
        }
      ],
      "name": "TransferBatch",
      "type": "event"
    },
    {
      "anonymous": false,
      "inputs": [
        {
          "indexed": true,
          "internalType": "address",
          "name": "operator",
          "type": "address"
        },
        {
          "indexed": true,
          "internalType": "address",
          "name": "from",
          "type": "address"
        },
        {
          "indexed": true,
          "internalType": "address",
          "name": "to",
          "type": "address"
        },
        {
          "indexed": false,
          "internalType": "uint256",
          "name": "id",
          "type": "uint256"
        },
        {
          "indexed": false,
          "internalType": "uint256",
          "name": "value",
          "type": "uint256"
        }
      ],
      "name": "TransferSingle",
      "type": "event"
    },
    {
      "anonymous": false,
      "inputs": [
        {
          "indexed": false,
          "internalType": "string",
          "name": "value",
          "type": "string"
        },
        {
          "indexed": true,
          "internalType": "uint256",
          "name": "id",
          "type": "uint256"
        }
      ],
      "name": "URI",
      "type": "event"
    },
    {
      "inputs": [
        {
          "internalType": "address",
          "name": "account",
          "type": "address"
        },
        {
          "internalType": "uint256",
          "name": "id",
          "type": "uint256"
        }
      ],
      "name": "balanceOf",
      "outputs": [
        {
          "internalType": "uint256",
          "name": "",
          "type": "uint256"
        }
      ],
      "stateMutability": "view",
      "type": "function",
      "constant": true
    },
    {
      "inputs": [
        {
          "internalType": "address[]",
          "name": "accounts",
          "type": "address[]"
        },
        {
          "internalType": "uint256[]",
          "name": "ids",
          "type": "uint256[]"
        }
      ],
      "name": "balanceOfBatch",
      "outputs": [
        {
          "internalType": "uint256[]",
          "name": "",
          "type": "uint256[]"
        }
      ],
      "stateMutability": "view",
      "type": "function",
      "constant": true
    },
    {
      "inputs": [
        {
          "internalType": "uint256",
          "name": "",
          "type": "uint256"
        }
      ],
      "name": "fragmentedNFTs",
      "outputs": [
        {
          "internalType": "uint256",
          "name": "originalTokenId",
          "type": "uint256"
        },
        {
          "internalType": "address",
          "name": "originalContract",
          "type": "address"
        },
        {
          "internalType": "uint256",
          "name": "fragmentsCount",
          "type": "uint256"
        }
      ],
      "stateMutability": "view",
      "type": "function",
      "constant": true
    },
    {
      "inputs": [
        {
          "internalType": "address",
          "name": "account",
          "type": "address"
        },
        {
          "internalType": "address",
          "name": "operator",
          "type": "address"
        }
      ],
      "name": "isApprovedForAll",
      "outputs": [
        {
          "internalType": "bool",
          "name": "",
          "type": "bool"
        }
      ],
      "stateMutability": "view",
      "type": "function",
      "constant": true
    },
    {
      "inputs": [],
      "name": "owner",
      "outputs": [
        {
          "internalType": "address",
          "name": "",
          "type": "address"
        }
      ],
      "stateMutability": "view",
      "type": "function",
      "constant": true
    },
    {
      "inputs": [],
      "name": "renounceOwnership",
      "outputs": [],
      "stateMutability": "nonpayable",
      "type": "function"
    },
    {
      "inputs": [
        {
          "internalType": "address",
          "name": "from",
          "type": "address"
        },
        {
          "internalType": "address",
          "name": "to",
          "type": "address"
        },
        {
          "internalType": "uint256[]",
          "name": "ids",
          "type": "uint256[]"
        },
        {
          "internalType": "uint256[]",
          "name": "amounts",
          "type": "uint256[]"
        },
        {
          "internalType": "bytes",
          "name": "data",
          "type": "bytes"
        }
      ],
      "name": "safeBatchTransferFrom",
      "outputs": [],
      "stateMutability": "nonpayable",
      "type": "function"
    },
    {
      "inputs": [
        {
          "internalType": "address",
          "name": "from",
          "type": "address"
        },
        {
          "internalType": "address",
          "name": "to",
          "type": "address"
        },
        {
          "internalType": "uint256",
          "name": "id",
          "type": "uint256"
        },
        {
          "internalType": "uint256",
          "name": "amount",
          "type": "uint256"
        },
        {
          "internalType": "bytes",
          "name": "data",
          "type": "bytes"
        }
      ],
      "name": "safeTransferFrom",
      "outputs": [],
      "stateMutability": "nonpayable",
      "type": "function"
    },
    {
      "inputs": [
        {
          "internalType": "address",
          "name": "operator",
          "type": "address"
        },
        {
          "internalType": "bool",
          "name": "approved",
          "type": "bool"
        }
      ],
      "name": "setApprovalForAll",
      "outputs": [],
      "stateMutability": "nonpayable",
      "type": "function"
    },
    {
      "inputs": [
        {
          "internalType": "address",
          "name": "newOwner",
          "type": "address"
        }
      ],
      "name": "transferOwnership",
      "outputs": [],
      "stateMutability": "nonpayable",
      "type": "function"
    },
    {
      "inputs": [
        {
          "internalType": "address",
          "name": "nftContract",
          "type": "address"
        },
        {
          "internalType": "uint256",
          "name": "tokenId",
          "type": "uint256"
        },
        {
          "internalType": "uint256",
          "name": "fragmentsCount",
          "type": "uint256"
        }
      ],
      "name": "fragmentNFT",
      "outputs": [],
      "stateMutability": "nonpayable",
      "type": "function"
    },
    {
      "inputs": [
        {
          "internalType": "uint256",
          "name": "tokenId",
          "type": "uint256"
        }
      ],
      "name": "defragmentNFT",
      "outputs": [],
      "stateMutability": "nonpayable",
      "type": "function"
    },
    {
      "inputs": [
        {
          "internalType": "bytes4",
          "name": "interfaceId",
          "type": "bytes4"
        }
      ],
      "name": "supportsInterface",
      "outputs": [
        {
          "internalType": "bool",
          "name": "",
          "type": "bool"
        }
      ],
      "stateMutability": "view",
      "type": "function",
      "constant": true
    },
    {
      "inputs": [
        {
          "internalType": "uint256",
          "name": "tokenId",
          "type": "uint256"
        }
      ],
      "name": "uri",
      "outputs": [
        {
          "internalType": "string",
          "name": "",
          "type": "string"
        }
      ],
      "stateMutability": "view",
      "type": "function",
      "constant": true
    }
  ],
  "bytecode": "0x60806040523480156200001157600080fd5b506040518060200160405280600081525062000033816200005a60201b60201c565b5062000054620000486200007660201b60201c565b6200007e60201b60201c565b62000259565b80600290805190602001906200007292919062000144565b5050565b600033905090565b6000600360009054906101000a900473ffffffffffffffffffffffffffffffffffffffff16905081600360006101000a81548173ffffffffffffffffffffffffffffffffffffffff021916908373ffffffffffffffffffffffffffffffffffffffff1602179055508173ffffffffffffffffffffffffffffffffffffffff168173ffffffffffffffffffffffffffffffffffffffff167f8be0079c531659141344cd1fd0a4f28419497f9722a3daafe3b4186f6b6457e060405160405180910390a35050565b8280546200015290620001f4565b90600052602060002090601f016020900481019282620001765760008555620001c2565b82601f106200019157805160ff1916838001178555620001c2565b82800160010185558215620001c2579182015b82811115620001c1578251825591602001919060010190620001a4565b5b509050620001d19190620001d5565b5090565b5b80821115620001f0576000816000905550600101620001d6565b5090565b600060028204905060018216806200020d57607f821691505b602082108114156200022457620002236200022a565b5b50919050565b7f4e487b7100000000000000000000000000000000000000000000000000000000600052602260045260246000fd5b61379c80620002696000396000f3fe608060405234801561001057600080fd5b50600436106100e95760003560e01c80638cf784af1161008c578063cf63415e11610066578063cf63415e14610246578063e985e9c514610278578063f242432a146102a8578063f2fde38b146102c4576100e9565b80638cf784af146101f05780638da5cb5b1461020c578063a22cb4651461022a576100e9565b80632eb2c2d6116100c85780632eb2c2d61461017e5780633220ad8b1461019a5780634e1273f4146101b6578063715018a6146101e6576100e9565b8062fdd58e146100ee57806301ffc9a71461011e5780630e89341c1461014e575b600080fd5b6101086004803603810190610103919061247e565b6102e0565b6040516101159190612d74565b60405180910390f35b61013860048036038101906101339190612575565b6103a9565b6040516101459190612af7565b60405180910390f35b610168600480360381019061016391906125c7565b6103bb565b6040516101759190612b12565b60405180910390f35b610198600480360381019061019391906122f4565b6103c2565b005b6101b460048036038101906101af91906125c7565b610463565b005b6101d060048036038101906101cb9190612509565b610682565b6040516101dd9190612a9e565b60405180910390f35b6101ee610833565b005b61020a600480360381019061020591906124ba565b610847565b005b610214610b1f565b604051610221919061298a565b60405180910390f35b610244600480360381019061023f9190612442565b610b49565b005b610260600480360381019061025b91906125c7565b610b5f565b60405161026f93929190612d8f565b60405180910390f35b610292600480360381019061028d91906122b8565b610ba9565b60405161029f9190612af7565b60405180910390f35b6102c260048036038101906102bd91906123b3565b610c3d565b005b6102de60048036038101906102d99190612266565b610cde565b005b60008073ffffffffffffffffffffffffffffffffffffffff168373ffffffffffffffffffffffffffffffffffffffff161415610351576040517f08c379a000000000000000000000000000000000000000000000000000000000815260040161034890612bb4565b60405180910390fd5b60008083815260200190815260200160002060008473ffffffffffffffffffffffffffffffffffffffff1673ffffffffffffffffffffffffffffffffffffffff16815260200190815260200160002054905092915050565b60006103b482610d62565b9050919050565b6060919050565b6103ca610e44565b73ffffffffffffffffffffffffffffffffffffffff168573ffffffffffffffffffffffffffffffffffffffff161480610410575061040f8561040a610e44565b610ba9565b5b61044f576040517f08c379a000000000000000000000000000000000000000000000000000000000815260040161044690612bd4565b60405180910390fd5b61045c8585858585610e4c565b5050505050565b600060056000838152602001908152602001600020604051806060016040529081600082015481526020016001820160009054906101000a900473ffffffffffffffffffffffffffffffffffffffff1673ffffffffffffffffffffffffffffffffffffffff1673ffffffffffffffffffffffffffffffffffffffff1681526020016002820154815250509050600073ffffffffffffffffffffffffffffffffffffffff16816020015173ffffffffffffffffffffffffffffffffffffffff161415610563576040517f08c379a000000000000000000000000000000000000000000000000000000000815260040161055a90612bf4565b60405180910390fd5b6000816040015190508061057733856102e0565b146105b7576040517f08c379a00000000000000000000000000000000000000000000000000000000081526004016105ae90612c94565b60405180910390fd5b6105c23384836111ba565b816020015173ffffffffffffffffffffffffffffffffffffffff166323b872dd303385600001516040518463ffffffff1660e01b815260040161060793929190612a0d565b600060405180830381600087803b15801561062157600080fd5b505af1158015610635573d6000803e3d6000fd5b50505050823373ffffffffffffffffffffffffffffffffffffffff167f1c94c932207d61a9e6bf6dd21b5c00a4367dd72e5461c529e1ffb21bd9cde49960405160405180910390a3505050565b606081518351146106c8576040517f08c379a00000000000000000000000000000000000000000000000000000000081526004016106bf90612cf4565b60405180910390fd5b6000835167ffffffffffffffff81111561070b577f4e487b7100000000000000000000000000000000000000000000000000000000600052604160045260246000fd5b6040519080825280602002602001820160405280156107395781602001602082028036833780820191505090505b50905060005b8451811015610828576107d2858281518110610784577f4e487b7100000000000000000000000000000000000000000000000000000000600052603260045260246000fd5b60200260200101518583815181106107c5577f4e487b7100000000000000000000000000000000000000000000000000000000600052603260045260246000fd5b60200260200101516102e0565b82828151811061080b577f4e487b7100000000000000000000000000000000000000000000000000000000600052603260045260246000fd5b602002602001018181525050806108219061304b565b905061073f565b508091505092915050565b61083b611401565b610845600061147f565b565b6000811161088a576040517f08c379a000000000000000000000000000000000000000000000000000000000815260040161088190612b54565b60405180910390fd5b60008390503373ffffffffffffffffffffffffffffffffffffffff168173ffffffffffffffffffffffffffffffffffffffff16636352211e856040518263ffffffff1660e01b81526004016108df9190612d74565b60206040518083038186803b1580156108f757600080fd5b505afa15801561090b573d6000803e3d6000fd5b505050506040513d601f19601f8201168201806040525081019061092f919061228f565b73ffffffffffffffffffffffffffffffffffffffff1614610985576040517f08c379a000000000000000000000000000000000000000000000000000000000815260040161097c90612cb4565b60405180910390fd5b8073ffffffffffffffffffffffffffffffffffffffff166323b872dd3330866040518463ffffffff1660e01b81526004016109c293929190612a0d565b600060405180830381600087803b1580156109dc57600080fd5b505af11580156109f0573d6000803e3d6000fd5b505050506000610a006004611545565b905060405180606001604052808581526020018673ffffffffffffffffffffffffffffffffffffffff16815260200184815250600560008381526020019081526020016000206000820151816000015560208201518160010160006101000a81548173ffffffffffffffffffffffffffffffffffffffff021916908373ffffffffffffffffffffffffffffffffffffffff16021790555060408201518160020155905050610aae6004611553565b610ac933828560405180602001604052806000815250611569565b833373ffffffffffffffffffffffffffffffffffffffff167fa5cc72cefd4fd8ca8b42ada77323e9058319da6b35463744c5a0112e81455d6585604051610b109190612d74565b60405180910390a35050505050565b6000600360009054906101000a900473ffffffffffffffffffffffffffffffffffffffff16905090565b610b5b610b54610e44565b838361171a565b5050565b60056020528060005260406000206000915090508060000154908060010160009054906101000a900473ffffffffffffffffffffffffffffffffffffffff16908060020154905083565b6000600160008473ffffffffffffffffffffffffffffffffffffffff1673ffffffffffffffffffffffffffffffffffffffff16815260200190815260200160002060008373ffffffffffffffffffffffffffffffffffffffff1673ffffffffffffffffffffffffffffffffffffffff16815260200190815260200160002060009054906101000a900460ff16905092915050565b610c45610e44565b73ffffffffffffffffffffffffffffffffffffffff168573ffffffffffffffffffffffffffffffffffffffff161480610c8b5750610c8a85610c85610e44565b610ba9565b5b610cca576040517f08c379a0000000000000000000000000000000000000000000000000000000008152600401610cc190612bd4565b60405180910390fd5b610cd78585858585611887565b5050505050565b610ce6611401565b600073ffffffffffffffffffffffffffffffffffffffff168173ffffffffffffffffffffffffffffffffffffffff161415610d56576040517f08c379a0000000000000000000000000000000000000000000000000000000008152600401610d4d90612b74565b60405180910390fd5b610d5f8161147f565b50565b60007fd9b67a26000000000000000000000000000000000000000000000000000000007bffffffffffffffffffffffffffffffffffffffffffffffffffffffff1916827bffffffffffffffffffffffffffffffffffffffffffffffffffffffff19161480610e2d57507f0e89341c000000000000000000000000000000000000000000000000000000007bffffffffffffffffffffffffffffffffffffffffffffffffffffffff1916827bffffffffffffffffffffffffffffffffffffffffffffffffffffffff1916145b80610e3d5750610e3c82611b23565b5b9050919050565b600033905090565b8151835114610e90576040517f08c379a0000000000000000000000000000000000000000000000000000000008152600401610e8790612d14565b60405180910390fd5b600073ffffffffffffffffffffffffffffffffffffffff168473ffffffffffffffffffffffffffffffffffffffff161415610f00576040517f08c379a0000000000000000000000000000000000000000000000000000000008152600401610ef790612c14565b60405180910390fd5b6000610f0a610e44565b9050610f1a818787878787611b8d565b60005b8451811015611117576000858281518110610f61577f4e487b7100000000000000000000000000000000000000000000000000000000600052603260045260246000fd5b602002602001015190506000858381518110610fa6577f4e487b7100000000000000000000000000000000000000000000000000000000600052603260045260246000fd5b60200260200101519050600080600084815260200190815260200160002060008b73ffffffffffffffffffffffffffffffffffffffff1673ffffffffffffffffffffffffffffffffffffffff16815260200190815260200160002054905081811015611047576040517f08c379a000000000000000000000000000000000000000000000000000000000815260040161103e90612c54565b60405180910390fd5b81810360008085815260200190815260200160002060008c73ffffffffffffffffffffffffffffffffffffffff1673ffffffffffffffffffffffffffffffffffffffff168152602001908152602001600020819055508160008085815260200190815260200160002060008b73ffffffffffffffffffffffffffffffffffffffff1673ffffffffffffffffffffffffffffffffffffffff16815260200190815260200160002060008282546110fc9190612f0e565b92505081905550505050806111109061304b565b9050610f1d565b508473ffffffffffffffffffffffffffffffffffffffff168673ffffffffffffffffffffffffffffffffffffffff168273ffffffffffffffffffffffffffffffffffffffff167f4a39dc06d4c0dbc64b70af90fd698a233a518aa5d07e595d983b8c0526c8f7fb878760405161118e929190612ac0565b60405180910390a46111a4818787878787611b95565b6111b2818787878787611b9d565b505050505050565b600073ffffffffffffffffffffffffffffffffffffffff168373ffffffffffffffffffffffffffffffffffffffff16141561122a576040517f08c379a000000000000000000000000000000000000000000000000000000000815260040161122190612c34565b60405180910390fd5b6000611234610e44565b9050600061124184611d84565b9050600061124e84611d84565b905061126e83876000858560405180602001604052806000815250611b8d565b600080600087815260200190815260200160002060008873ffffffffffffffffffffffffffffffffffffffff1673ffffffffffffffffffffffffffffffffffffffff16815260200190815260200160002054905084811015611305576040517f08c379a00000000000000000000000000000000000000000000000000000000081526004016112fc90612b94565b60405180910390fd5b84810360008088815260200190815260200160002060008973ffffffffffffffffffffffffffffffffffffffff1673ffffffffffffffffffffffffffffffffffffffff16815260200190815260200160002081905550600073ffffffffffffffffffffffffffffffffffffffff168773ffffffffffffffffffffffffffffffffffffffff168573ffffffffffffffffffffffffffffffffffffffff167fc3d58168c5ae7397731d063d5bbf3d657854427343f4c083240f7aacaa2d0f6289896040516113d2929190612dc6565b60405180910390a46113f884886000868660405180602001604052806000815250611b95565b50505050505050565b611409610e44565b73ffffffffffffffffffffffffffffffffffffffff16611427610b1f565b73ffffffffffffffffffffffffffffffffffffffff161461147d576040517f08c379a000000000000000000000000000000000000000000000000000000000815260040161147490612c74565b60405180910390fd5b565b6000600360009054906101000a900473ffffffffffffffffffffffffffffffffffffffff16905081600360006101000a81548173ffffffffffffffffffffffffffffffffffffffff021916908373ffffffffffffffffffffffffffffffffffffffff1602179055508173ffffffffffffffffffffffffffffffffffffffff168173ffffffffffffffffffffffffffffffffffffffff167f8be0079c531659141344cd1fd0a4f28419497f9722a3daafe3b4186f6b6457e060405160405180910390a35050565b600081600001549050919050565b6001816000016000828254019250508190555050565b600073ffffffffffffffffffffffffffffffffffffffff168473ffffffffffffffffffffffffffffffffffffffff1614156115d9576040517f08c379a00000000000000000000000000000000000000000000000000000000081526004016115d090612d34565b60405180910390fd5b60006115e3610e44565b905060006115f085611d84565b905060006115fd85611d84565b905061160e83600089858589611b8d565b8460008088815260200190815260200160002060008973ffffffffffffffffffffffffffffffffffffffff1673ffffffffffffffffffffffffffffffffffffffff168152602001908152602001600020600082825461166d9190612f0e565b925050819055508673ffffffffffffffffffffffffffffffffffffffff16600073ffffffffffffffffffffffffffffffffffffffff168473ffffffffffffffffffffffffffffffffffffffff167fc3d58168c5ae7397731d063d5bbf3d657854427343f4c083240f7aacaa2d0f6289896040516116eb929190612dc6565b60405180910390a461170283600089858589611b95565b61171183600089898989611e4a565b50505050505050565b8173ffffffffffffffffffffffffffffffffffffffff168373ffffffffffffffffffffffffffffffffffffffff161415611789576040517f08c379a000000000000000000000000000000000000000000000000000000000815260040161178090612cd4565b60405180910390fd5b80600160008573ffffffffffffffffffffffffffffffffffffffff1673ffffffffffffffffffffffffffffffffffffffff16815260200190815260200160002060008473ffffffffffffffffffffffffffffffffffffffff1673ffffffffffffffffffffffffffffffffffffffff16815260200190815260200160002060006101000a81548160ff0219169083151502179055508173ffffffffffffffffffffffffffffffffffffffff168373ffffffffffffffffffffffffffffffffffffffff167f17307eab39ab6107e8899845ad3d59bd9653f200f220920489ca2b5937696c318360405161187a9190612af7565b60405180910390a3505050565b600073ffffffffffffffffffffffffffffffffffffffff168473ffffffffffffffffffffffffffffffffffffffff1614156118f7576040517f08c379a00000000000000000000000000000000000000000000000000000000081526004016118ee90612c14565b60405180910390fd5b6000611901610e44565b9050600061190e85611d84565b9050600061191b85611d84565b905061192b838989858589611b8d565b600080600088815260200190815260200160002060008a73ffffffffffffffffffffffffffffffffffffffff1673ffffffffffffffffffffffffffffffffffffffff168152602001908152602001600020549050858110156119c2576040517f08c379a00000000000000000000000000000000000000000000000000000000081526004016119b990612c54565b60405180910390fd5b85810360008089815260200190815260200160002060008b73ffffffffffffffffffffffffffffffffffffffff1673ffffffffffffffffffffffffffffffffffffffff168152602001908152602001600020819055508560008089815260200190815260200160002060008a73ffffffffffffffffffffffffffffffffffffffff1673ffffffffffffffffffffffffffffffffffffffff1681526020019081526020016000206000828254611a779190612f0e565b925050819055508773ffffffffffffffffffffffffffffffffffffffff168973ffffffffffffffffffffffffffffffffffffffff168573ffffffffffffffffffffffffffffffffffffffff167fc3d58168c5ae7397731d063d5bbf3d657854427343f4c083240f7aacaa2d0f628a8a604051611af4929190612dc6565b60405180910390a4611b0a848a8a86868a611b95565b611b18848a8a8a8a8a611e4a565b505050505050505050565b60007f01ffc9a7000000000000000000000000000000000000000000000000000000007bffffffffffffffffffffffffffffffffffffffffffffffffffffffff1916827bffffffffffffffffffffffffffffffffffffffffffffffffffffffff1916149050919050565b505050505050565b505050505050565b611bbc8473ffffffffffffffffffffffffffffffffffffffff16612031565b15611d7c578373ffffffffffffffffffffffffffffffffffffffff1663bc197c8187878686866040518663ffffffff1660e01b8152600401611c029594939291906129a5565b602060405180830381600087803b158015611c1c57600080fd5b505af1925050508015611c4d57506040513d601f19601f82011682018060405250810190611c4a919061259e565b60015b611cf357611c596130f2565b806308c379a01415611cb65750611c6e613674565b80611c795750611cb8565b806040517f08c379a0000000000000000000000000000000000000000000000000000000008152600401611cad9190612b12565b60405180910390fd5b505b6040517f08c379a0000000000000000000000000000000000000000000000000000000008152600401611cea90612d54565b60405180910390fd5b63bc197c8160e01b7bffffffffffffffffffffffffffffffffffffffffffffffffffffffff1916817bffffffffffffffffffffffffffffffffffffffffffffffffffffffff191614611d7a576040517f08c379a0000000000000000000000000000000000000000000000000000000008152600401611d7190612b34565b60405180910390fd5b505b505050505050565b60606000600167ffffffffffffffff811115611dc9577f4e487b7100000000000000000000000000000000000000000000000000000000600052604160045260246000fd5b604051908082528060200260200182016040528015611df75781602001602082028036833780820191505090505b5090508281600081518110611e35577f4e487b7100000000000000000000000000000000000000000000000000000000600052603260045260246000fd5b60200260200101818152505080915050919050565b611e698473ffffffffffffffffffffffffffffffffffffffff16612031565b15612029578373ffffffffffffffffffffffffffffffffffffffff1663f23a6e6187878686866040518663ffffffff1660e01b8152600401611eaf959493929190612a44565b602060405180830381600087803b158015611ec957600080fd5b505af1925050508015611efa57506040513d601f19601f82011682018060405250810190611ef7919061259e565b60015b611fa057611f066130f2565b806308c379a01415611f635750611f1b613674565b80611f265750611f65565b806040517f08c379a0000000000000000000000000000000000000000000000000000000008152600401611f5a9190612b12565b60405180910390fd5b505b6040517f08c379a0000000000000000000000000000000000000000000000000000000008152600401611f9790612d54565b60405180910390fd5b63f23a6e6160e01b7bffffffffffffffffffffffffffffffffffffffffffffffffffffffff1916817bffffffffffffffffffffffffffffffffffffffffffffffffffffffff191614612027576040517f08c379a000000000000000000000000000000000000000000000000000000000815260040161201e90612b34565b60405180910390fd5b505b505050505050565b6000808273ffffffffffffffffffffffffffffffffffffffff163b119050919050565b600061206761206284612e14565b612def565b9050808382526020820190508285602086028201111561208657600080fd5b60005b858110156120b6578161209c888261216a565b845260208401935060208301925050600181019050612089565b5050509392505050565b60006120d36120ce84612e40565b612def565b905080838252602082019050828560208602820111156120f257600080fd5b60005b8581101561212257816121088882612251565b8452602084019350602083019250506001810190506120f5565b5050509392505050565b600061213f61213a84612e6c565b612def565b90508281526020810184848401111561215757600080fd5b612162848285612fd8565b509392505050565b6000813590506121798161370a565b92915050565b60008151905061218e8161370a565b92915050565b600082601f8301126121a557600080fd5b81356121b5848260208601612054565b91505092915050565b600082601f8301126121cf57600080fd5b81356121df8482602086016120c0565b91505092915050565b6000813590506121f781613721565b92915050565b60008135905061220c81613738565b92915050565b60008151905061222181613738565b92915050565b600082601f83011261223857600080fd5b813561224884826020860161212c565b91505092915050565b6000813590506122608161374f565b92915050565b60006020828403121561227857600080fd5b60006122868482850161216a565b91505092915050565b6000602082840312156122a157600080fd5b60006122af8482850161217f565b91505092915050565b600080604083850312156122cb57600080fd5b60006122d98582860161216a565b92505060206122ea8582860161216a565b9150509250929050565b600080600080600060a0868803121561230c57600080fd5b600061231a8882890161216a565b955050602061232b8882890161216a565b945050604086013567ffffffffffffffff81111561234857600080fd5b612354888289016121be565b935050606086013567ffffffffffffffff81111561237157600080fd5b61237d888289016121be565b925050608086013567ffffffffffffffff81111561239a57600080fd5b6123a688828901612227565b9150509295509295909350565b600080600080600060a086880312156123cb57600080fd5b60006123d98882890161216a565b95505060206123ea8882890161216a565b94505060406123fb88828901612251565b935050606061240c88828901612251565b925050608086013567ffffffffffffffff81111561242957600080fd5b61243588828901612227565b9150509295509295909350565b6000806040838503121561245557600080fd5b60006124638582860161216a565b9250506020612474858286016121e8565b9150509250929050565b6000806040838503121561249157600080fd5b600061249f8582860161216a565b92505060206124b085828601612251565b9150509250929050565b6000806000606084860312156124cf57600080fd5b60006124dd8682870161216a565b93505060206124ee86828701612251565b92505060406124ff86828701612251565b9150509250925092565b6000806040838503121561251c57600080fd5b600083013567ffffffffffffffff81111561253657600080fd5b61254285828601612194565b925050602083013567ffffffffffffffff81111561255f57600080fd5b61256b858286016121be565b9150509250929050565b60006020828403121561258757600080fd5b6000612595848285016121fd565b91505092915050565b6000602082840312156125b057600080fd5b60006125be84828501612212565b91505092915050565b6000602082840312156125d957600080fd5b60006125e784828501612251565b91505092915050565b60006125fc838361296c565b60208301905092915050565b61261181612f64565b82525050565b600061262282612ead565b61262c8185612edb565b935061263783612e9d565b8060005b8381101561266857815161264f88826125f0565b975061265a83612ece565b92505060018101905061263b565b5085935050505092915050565b61267e81612f76565b82525050565b600061268f82612eb8565b6126998185612eec565b93506126a9818560208601612fe7565b6126b281613114565b840191505092915050565b60006126c882612ec3565b6126d28185612efd565b93506126e2818560208601612fe7565b6126eb81613114565b840191505092915050565b6000612703602883612efd565b915061270e82613132565b604082019050919050565b6000612726602883612efd565b915061273182613181565b604082019050919050565b6000612749602683612efd565b9150612754826131d0565b604082019050919050565b600061276c602483612efd565b91506127778261321f565b604082019050919050565b600061278f602a83612efd565b915061279a8261326e565b604082019050919050565b60006127b2602e83612efd565b91506127bd826132bd565b604082019050919050565b60006127d5600f83612efd565b91506127e08261330c565b602082019050919050565b60006127f8602583612efd565b915061280382613335565b604082019050919050565b600061281b602383612efd565b915061282682613384565b604082019050919050565b600061283e602a83612efd565b9150612849826133d3565b604082019050919050565b6000612861602083612efd565b915061286c82613422565b602082019050919050565b6000612884602183612efd565b915061288f8261344b565b604082019050919050565b60006128a7602283612efd565b91506128b28261349a565b604082019050919050565b60006128ca602983612efd565b91506128d5826134e9565b604082019050919050565b60006128ed602983612efd565b91506128f882613538565b604082019050919050565b6000612910602883612efd565b915061291b82613587565b604082019050919050565b6000612933602183612efd565b915061293e826135d6565b604082019050919050565b6000612956603483612efd565b915061296182613625565b604082019050919050565b61297581612fce565b82525050565b61298481612fce565b82525050565b600060208201905061299f6000830184612608565b92915050565b600060a0820190506129ba6000830188612608565b6129c76020830187612608565b81810360408301526129d98186612617565b905081810360608301526129ed8185612617565b90508181036080830152612a018184612684565b90509695505050505050565b6000606082019050612a226000830186612608565b612a2f6020830185612608565b612a3c604083018461297b565b949350505050565b600060a082019050612a596000830188612608565b612a666020830187612608565b612a73604083018661297b565b612a80606083018561297b565b8181036080830152612a928184612684565b90509695505050505050565b60006020820190508181036000830152612ab88184612617565b905092915050565b60006040820190508181036000830152612ada8185612617565b90508181036020830152612aee8184612617565b90509392505050565b6000602082019050612b0c6000830184612675565b92915050565b60006020820190508181036000830152612b2c81846126bd565b905092915050565b60006020820190508181036000830152612b4d816126f6565b9050919050565b60006020820190508181036000830152612b6d81612719565b9050919050565b60006020820190508181036000830152612b8d8161273c565b9050919050565b60006020820190508181036000830152612bad8161275f565b9050919050565b60006020820190508181036000830152612bcd81612782565b9050919050565b60006020820190508181036000830152612bed816127a5565b9050919050565b60006020820190508181036000830152612c0d816127c8565b9050919050565b60006020820190508181036000830152612c2d816127eb565b9050919050565b60006020820190508181036000830152612c4d8161280e565b9050919050565b60006020820190508181036000830152612c6d81612831565b9050919050565b60006020820190508181036000830152612c8d81612854565b9050919050565b60006020820190508181036000830152612cad81612877565b9050919050565b60006020820190508181036000830152612ccd8161289a565b9050919050565b60006020820190508181036000830152612ced816128bd565b9050919050565b60006020820190508181036000830152612d0d816128e0565b9050919050565b60006020820190508181036000830152612d2d81612903565b9050919050565b60006020820190508181036000830152612d4d81612926565b9050919050565b60006020820190508181036000830152612d6d81612949565b9050919050565b6000602082019050612d89600083018461297b565b92915050565b6000606082019050612da4600083018661297b565b612db16020830185612608565b612dbe604083018461297b565b949350505050565b6000604082019050612ddb600083018561297b565b612de8602083018461297b565b9392505050565b6000612df9612e0a565b9050612e05828261301a565b919050565b6000604051905090565b600067ffffffffffffffff821115612e2f57612e2e6130c3565b5b602082029050602081019050919050565b600067ffffffffffffffff821115612e5b57612e5a6130c3565b5b602082029050602081019050919050565b600067ffffffffffffffff821115612e8757612e866130c3565b5b612e9082613114565b9050602081019050919050565b6000819050602082019050919050565b600081519050919050565b600081519050919050565b600081519050919050565b6000602082019050919050565b600082825260208201905092915050565b600082825260208201905092915050565b600082825260208201905092915050565b6000612f1982612fce565b9150612f2483612fce565b9250827fffffffffffffffffffffffffffffffffffffffffffffffffffffffffffffffff03821115612f5957612f58613094565b5b828201905092915050565b6000612f6f82612fae565b9050919050565b60008115159050919050565b60007fffffffff0000000000000000000000000000000000000000000000000000000082169050919050565b600073ffffffffffffffffffffffffffffffffffffffff82169050919050565b6000819050919050565b82818337600083830152505050565b60005b83811015613005578082015181840152602081019050612fea565b83811115613014576000848401525b50505050565b61302382613114565b810181811067ffffffffffffffff82111715613042576130416130c3565b5b80604052505050565b600061305682612fce565b91507fffffffffffffffffffffffffffffffffffffffffffffffffffffffffffffffff82141561308957613088613094565b5b600182019050919050565b7f4e487b7100000000000000000000000000000000000000000000000000000000600052601160045260246000fd5b7f4e487b7100000000000000000000000000000000000000000000000000000000600052604160045260246000fd5b600060033d11156131115760046000803e61310e600051613125565b90505b90565b6000601f19601f8301169050919050565b60008160e01c9050919050565b7f455243313135353a204552433131353552656365697665722072656a6563746560008201527f6420746f6b656e73000000000000000000000000000000000000000000000000602082015250565b7f467261676d656e747320636f756e742073686f756c642062652067726561746560008201527f72207468616e2030000000000000000000000000000000000000000000000000602082015250565b7f4f776e61626c653a206e6577206f776e657220697320746865207a65726f206160008201527f6464726573730000000000000000000000000000000000000000000000000000602082015250565b7f455243313135353a206275726e20616d6f756e7420657863656564732062616c60008201527f616e636500000000000000000000000000000000000000000000000000000000602082015250565b7f455243313135353a2061646472657373207a65726f206973206e6f742061207660008201527f616c6964206f776e657200000000000000000000000000000000000000000000602082015250565b7f455243313135353a2063616c6c6572206973206e6f7420746f6b656e206f776e60008201527f6572206f7220617070726f766564000000000000000000000000000000000000602082015250565b7f496e76616c696420746f6b656e49640000000000000000000000000000000000600082015250565b7f455243313135353a207472616e7366657220746f20746865207a65726f20616460008201527f6472657373000000000000000000000000000000000000000000000000000000602082015250565b7f455243313135353a206275726e2066726f6d20746865207a65726f206164647260008201527f6573730000000000000000000000000000000000000000000000000000000000602082015250565b7f455243313135353a20696e73756666696369656e742062616c616e636520666f60008201527f72207472616e7366657200000000000000000000000000000000000000000000602082015250565b7f4f776e61626c653a2063616c6c6572206973206e6f7420746865206f776e6572600082015250565b7f43616c6c657220646f6573206e6f74206f776e20616c6c20667261676d656e7460008201527f7300000000000000000000000000000000000000000000000000000000000000602082015250565b7f43616c6c6572206973206e6f7420746865206f776e6572206f6620746865204e60008201527f4654000000000000000000000000000000000000000000000000000000000000602082015250565b7f455243313135353a2073657474696e6720617070726f76616c2073746174757360008201527f20666f722073656c660000000000000000000000000000000000000000000000602082015250565b7f455243313135353a206163636f756e747320616e6420696473206c656e67746860008201527f206d69736d617463680000000000000000000000000000000000000000000000602082015250565b7f455243313135353a2069647320616e6420616d6f756e7473206c656e6774682060008201527f6d69736d61746368000000000000000000000000000000000000000000000000602082015250565b7f455243313135353a206d696e7420746f20746865207a65726f2061646472657360008201527f7300000000000000000000000000000000000000000000000000000000000000602082015250565b7f455243313135353a207472616e7366657220746f206e6f6e2d4552433131353560008201527f526563656976657220696d706c656d656e746572000000000000000000000000602082015250565b600060443d101561368457613707565b61368c612e0a565b60043d036004823e80513d602482011167ffffffffffffffff821117156136b4575050613707565b808201805167ffffffffffffffff8111156136d25750505050613707565b80602083010160043d0385018111156136ef575050505050613707565b6136fe8260200185018661301a565b82955050505050505b90565b61371381612f64565b811461371e57600080fd5b50565b61372a81612f76565b811461373557600080fd5b50565b61374181612f82565b811461374c57600080fd5b50565b61375881612fce565b811461376357600080fd5b5056fea2646970667358221220baa7b50950f6459f9cdff025fa53f5c0bb2d1edb34b215e257a2b96feedfbc5564736f6c63430008040033",
  "immutableReferences": {},
  "source": "// SPDX-License-Identifier: MIT\r\n\r\npragma solidity ^0.8.0;\r\n\r\nimport \"@openzeppelin/contracts/token/ERC721/IERC721.sol\";\r\nimport \"@openzeppelin/contracts/token/ERC1155/IERC1155.sol\";\r\nimport \"@openzeppelin/contracts/token/ERC1155/ERC1155.sol\";\r\nimport \"@openzeppelin/contracts/access/Ownable.sol\";\r\nimport \"@openzeppelin/contracts/utils/Counters.sol\";\r\n\r\ncontract NFTFragmenter is ERC1155, Ownable {\r\n    using Counters for Counters.Counter;\r\n    Counters.Counter private _tokenIdTracker;\r\n\r\n    struct FragmentedNFT {\r\n        uint256 originalTokenId;\r\n        address originalContract;\r\n        uint256 fragmentsCount;\r\n    }\r\n\r\n    mapping(uint256 => FragmentedNFT) public fragmentedNFTs;\r\n\r\n    event NFTFragmented(\r\n        address indexed owner,\r\n        uint256 indexed tokenId,\r\n        uint256 fragmentsCount\r\n    );\r\n    event NFTDefragmented(address indexed owner, uint256 indexed tokenId);\r\n\r\n    constructor() ERC1155(\"\") {}\r\n\r\n    function fragmentNFT(\r\n        address nftContract,\r\n        uint256 tokenId,\r\n        uint256 fragmentsCount\r\n    ) public {\r\n        require(fragmentsCount > 0, \"Fragments count should be greater than 0\");\r\n\r\n        IERC721 nft = IERC721(nftContract);\r\n        require(\r\n            nft.ownerOf(tokenId) == msg.sender,\r\n            \"Caller is not the owner of the NFT\"\r\n        );\r\n\r\n        // Transfer the original NFT to this contract\r\n        nft.transferFrom(msg.sender, address(this), tokenId);\r\n\r\n        // Create the fragmented NFT\r\n        uint256 newTokenId = _tokenIdTracker.current();\r\n        fragmentedNFTs[newTokenId] = FragmentedNFT(\r\n            tokenId,\r\n            nftContract,\r\n            fragmentsCount\r\n        );\r\n        _tokenIdTracker.increment();\r\n\r\n        // Mint fragments as ERC1155 tokens\r\n        _mint(msg.sender, newTokenId, fragmentsCount, \"\");\r\n\r\n        emit NFTFragmented(msg.sender, tokenId, fragmentsCount);\r\n    }\r\n\r\n    function defragmentNFT(uint256 tokenId) public {\r\n        FragmentedNFT memory fragmentedNFT = fragmentedNFTs[tokenId];\r\n        require(\r\n            fragmentedNFT.originalContract != address(0),\r\n            \"Invalid tokenId\"\r\n        );\r\n\r\n        // Check if the caller owns all the fragments\r\n        uint256 fragmentsCount = fragmentedNFT.fragmentsCount;\r\n        require(\r\n            balanceOf(msg.sender, tokenId) == fragmentsCount,\r\n            \"Caller does not own all fragments\"\r\n        );\r\n\r\n        // Burn fragments\r\n        _burn(msg.sender, tokenId, fragmentsCount);\r\n\r\n        // Transfer the original NFT back to the owner\r\n        IERC721(fragmentedNFT.originalContract).transferFrom(\r\n            address(this),\r\n            msg.sender,\r\n            fragmentedNFT.originalTokenId\r\n        );\r\n\r\n        emit NFTDefragmented(msg.sender, tokenId);\r\n    }\r\n\r\n    function supportsInterface(\r\n        bytes4 interfaceId\r\n    ) public view override(ERC1155) returns (bool) {\r\n        return super.supportsInterface(interfaceId);\r\n    }\r\n\r\n    function uri(uint256 tokenId) public view override returns (string memory) {\r\n        // Implement custom logic for generating metadata URI for fragmented NFTs\r\n    }\r\n}\r\n",
  "sourcePath": "Z:\\Fragmented\\nft-fragmenter-smart-contract\\contracts\\NFTFragmenter.sol",
  "compiler": {
    "name": "solc",
    "version": "0.8.4+commit.c7e474f2.Emscripten.clang"
  },
  "schemaVersion": "3.4.13",
  "updatedAt": "2023-04-10T08:56:18.736Z",
  "networkType": "ethereum",
  "devdoc": {
    "kind": "dev",
    "methods": {
      "balanceOf(address,uint256)": {
        "details": "See {IERC1155-balanceOf}. Requirements: - `account` cannot be the zero address."
      },
      "balanceOfBatch(address[],uint256[])": {
        "details": "See {IERC1155-balanceOfBatch}. Requirements: - `accounts` and `ids` must have the same length."
      },
      "isApprovedForAll(address,address)": {
        "details": "See {IERC1155-isApprovedForAll}."
      },
      "owner()": {
        "details": "Returns the address of the current owner."
      },
      "renounceOwnership()": {
        "details": "Leaves the contract without owner. It will not be possible to call `onlyOwner` functions anymore. Can only be called by the current owner. NOTE: Renouncing ownership will leave the contract without an owner, thereby removing any functionality that is only available to the owner."
      },
      "safeBatchTransferFrom(address,address,uint256[],uint256[],bytes)": {
        "details": "See {IERC1155-safeBatchTransferFrom}."
      },
      "safeTransferFrom(address,address,uint256,uint256,bytes)": {
        "details": "See {IERC1155-safeTransferFrom}."
      },
      "setApprovalForAll(address,bool)": {
        "details": "See {IERC1155-setApprovalForAll}."
      },
      "supportsInterface(bytes4)": {
        "details": "See {IERC165-supportsInterface}."
      },
      "transferOwnership(address)": {
        "details": "Transfers ownership of the contract to a new account (`newOwner`). Can only be called by the current owner."
      }
    },
    "version": 1
  },
  "userdoc": {
    "kind": "user",
    "methods": {},
    "version": 1
  }
}